{
  "_format": "hh-sol-artifact-1",
  "contractName": "Assessment",
  "sourceName": "contracts/Assessment.sol",
  "abi": [
    {
      "inputs": [
        {
          "internalType": "uint256",
          "name": "initBalance",
          "type": "uint256"
        }
      ],
      "stateMutability": "payable",
      "type": "constructor"
    },
    {
      "anonymous": false,
      "inputs": [
        {
          "indexed": true,
          "internalType": "address",
          "name": "depositor",
          "type": "address"
        },
        {
          "indexed": false,
          "internalType": "uint256",
          "name": "amount",
          "type": "uint256"
        }
      ],
      "name": "Deposit",
      "type": "event"
    },
    {
      "anonymous": false,
      "inputs": [
        {
          "indexed": true,
          "internalType": "address",
          "name": "withdrawer",
          "type": "address"
        },
        {
          "indexed": false,
          "internalType": "uint256",
          "name": "amount",
          "type": "uint256"
        }
      ],
      "name": "Withdraw",
      "type": "event"
    },
    {
      "inputs": [],
      "name": "balance",
      "outputs": [
        {
          "internalType": "uint256",
          "name": "",
          "type": "uint256"
        }
      ],
      "stateMutability": "view",
      "type": "function"
    },
    {
      "inputs": [
        {
          "internalType": "uint256",
          "name": "_amount",
          "type": "uint256"
        }
      ],
      "name": "deposit",
      "outputs": [],
      "stateMutability": "payable",
      "type": "function"
    },
    {
      "inputs": [],
      "name": "getBalance",
      "outputs": [
        {
          "internalType": "uint256",
          "name": "",
          "type": "uint256"
        }
      ],
      "stateMutability": "view",
      "type": "function"
    },
    {
      "inputs": [],
      "name": "getTransactionCount",
      "outputs": [
        {
          "internalType": "uint256",
          "name": "",
          "type": "uint256"
        }
      ],
      "stateMutability": "view",
      "type": "function"
    },
    {
      "inputs": [],
      "name": "owner",
      "outputs": [
        {
          "internalType": "address payable",
          "name": "",
          "type": "address"
        }
      ],
      "stateMutability": "view",
      "type": "function"
    },
    {
      "inputs": [
        {
          "internalType": "uint256",
          "name": "",
          "type": "uint256"
        }
      ],
      "name": "transactionHistory",
      "outputs": [
        {
          "internalType": "address",
          "name": "user",
          "type": "address"
        },
        {
          "internalType": "uint256",
          "name": "amount",
          "type": "uint256"
        },
        {
          "internalType": "bool",
          "name": "isDeposit",
          "type": "bool"
        }
      ],
      "stateMutability": "view",
      "type": "function"
    },
    {
      "inputs": [
        {
          "internalType": "uint256",
          "name": "_withdrawAmount",
          "type": "uint256"
        }
      ],
      "name": "withdraw",
      "outputs": [],
      "stateMutability": "nonpayable",
      "type": "function"
    }
  ],
  "bytecode": "0x6080604052604051610a4c380380610a4c833981810160405281019061002591906100ad565b336000806101000a81548173ffffffffffffffffffffffffffffffffffffffff021916908373ffffffffffffffffffffffffffffffffffffffff16021790555080600181905550506100da565b600080fd5b6000819050919050565b61008a81610077565b811461009557600080fd5b50565b6000815190506100a781610081565b92915050565b6000602082840312156100c3576100c2610072565b5b60006100d184828501610098565b91505092915050565b610963806100e96000396000f3fe6080604052600436106100705760003560e01c80632e7700f01161004e5780632e7700f0146101085780638da5cb5b14610133578063b69ef8a81461015e578063b6b55f251461018957610070565b806312065fe014610075578063243e7a87146100a05780632e1a7d4d146100df575b600080fd5b34801561008157600080fd5b5061008a6101a5565b604051610097919061063f565b60405180910390f35b3480156100ac57600080fd5b506100c760048036038101906100c2919061068b565b6101af565b6040516100d693929190610714565b60405180910390f35b3480156100eb57600080fd5b506101066004803603810190610101919061068b565b610216565b005b34801561011457600080fd5b5061011d610425565b60405161012a919061063f565b60405180910390f35b34801561013f57600080fd5b50610148610432565b604051610155919061076c565b60405180910390f35b34801561016a57600080fd5b50610173610456565b604051610180919061063f565b60405180910390f35b6101a3600480360381019061019e919061068b565b61045c565b005b6000600154905090565b600281815481106101bf57600080fd5b90600052602060002090600302016000915090508060000160009054906101000a900473ffffffffffffffffffffffffffffffffffffffff16908060010154908060020160009054906101000a900460ff16905083565b60008054906101000a900473ffffffffffffffffffffffffffffffffffffffff1673ffffffffffffffffffffffffffffffffffffffff163373ffffffffffffffffffffffffffffffffffffffff16146102a4576040517f08c379a000000000000000000000000000000000000000000000000000000000815260040161029b9061080a565b60405180910390fd5b8060015410156102e9576040517f08c379a00000000000000000000000000000000000000000000000000000000081526004016102e090610876565b60405180910390fd5b80600160008282546102fb91906108c5565b92505081905550600260405180606001604052803373ffffffffffffffffffffffffffffffffffffffff16815260200183815260200160001515815250908060018154018082558091505060019003906000526020600020906003020160009091909190915060008201518160000160006101000a81548173ffffffffffffffffffffffffffffffffffffffff021916908373ffffffffffffffffffffffffffffffffffffffff1602179055506020820151816001015560408201518160020160006101000a81548160ff02191690831515021790555050503373ffffffffffffffffffffffffffffffffffffffff167f884edad9ce6fa2440d8a54cc123490eb96d2768479d49ff9c7366125a94243648260405161041a919061063f565b60405180910390a250565b6000600280549050905090565b60008054906101000a900473ffffffffffffffffffffffffffffffffffffffff1681565b60015481565b60008054906101000a900473ffffffffffffffffffffffffffffffffffffffff1673ffffffffffffffffffffffffffffffffffffffff163373ffffffffffffffffffffffffffffffffffffffff16146104ea576040517f08c379a00000000000000000000000000000000000000000000000000000000081526004016104e19061080a565b60405180910390fd5b80600160008282546104fc91906108f9565b92505081905550600260405180606001604052803373ffffffffffffffffffffffffffffffffffffffff16815260200183815260200160011515815250908060018154018082558091505060019003906000526020600020906003020160009091909190915060008201518160000160006101000a81548173ffffffffffffffffffffffffffffffffffffffff021916908373ffffffffffffffffffffffffffffffffffffffff1602179055506020820151816001015560408201518160020160006101000a81548160ff02191690831515021790555050503373ffffffffffffffffffffffffffffffffffffffff167fe1fffcc4923d04b559f4d29a8bfc6cda04eb5b0d3c460751c2402c5c5cc9109c8260405161061b919061063f565b60405180910390a250565b6000819050919050565b61063981610626565b82525050565b60006020820190506106546000830184610630565b92915050565b600080fd5b61066881610626565b811461067357600080fd5b50565b6000813590506106858161065f565b92915050565b6000602082840312156106a1576106a061065a565b5b60006106af84828501610676565b91505092915050565b600073ffffffffffffffffffffffffffffffffffffffff82169050919050565b60006106e3826106b8565b9050919050565b6106f3816106d8565b82525050565b60008115159050919050565b61070e816106f9565b82525050565b600060608201905061072960008301866106ea565b6107366020830185610630565b6107436040830184610705565b949350505050565b6000610756826106b8565b9050919050565b6107668161074b565b82525050565b6000602082019050610781600083018461075d565b92915050565b600082825260208201905092915050565b7f596f7520617265206e6f7420746865206f776e6572206f66207468697320616360008201527f636f756e74000000000000000000000000000000000000000000000000000000602082015250565b60006107f4602583610787565b91506107ff82610798565b604082019050919050565b60006020820190508181036000830152610823816107e7565b9050919050565b7f496e73756666696369656e742062616c616e6365000000000000000000000000600082015250565b6000610860601483610787565b915061086b8261082a565b602082019050919050565b6000602082019050818103600083015261088f81610853565b9050919050565b7f4e487b7100000000000000000000000000000000000000000000000000000000600052601160045260246000fd5b60006108d082610626565b91506108db83610626565b92508282039050818111156108f3576108f2610896565b5b92915050565b600061090482610626565b915061090f83610626565b925082820190508082111561092757610926610896565b5b9291505056fea2646970667358221220acb1fccd78e86407b319568031b6efb43f4d169654b3cde4e8d584f11d131de664736f6c63430008110033",
  "linkReferences": {},
  "deployedLinkReferences": {}
}